:020000040800F2
:10000000105B002029020008ED3E0008693B000853
:10001000CD3E000821050008E54B00080000000067
:100020000000000000000000000000000140000887
:10003000FD06000800000000613F00083540000890
:10004000430200084302000843020008430200087C
:10005000430200084302000843020008430200086C
:10006000430200084302000843020008430200085C
:10007000430200084302000843020008430200084C
:10008000430200084302000843020008430200083C
:100090002505000835050008430200084302000852
:1000A00043020008294100084302000843020008F7
:1000B00043020008394100084302000843020008D7
:1000C00043020008430200084302000843020008FC
:1000D00043020008D54B0008430200084302000811
:1000E0000107000843020008430200084302000819
:1000F00043020008430200084302000843020008CC
:1001000043020008430200084302000843020008BB
:1001100043020008430200084302000843020008AB
:10012000430200084302000861050008430200087A
:100130004302000800000000000000004302000825
:10014000430200084302000843020008430200087B
:10015000430200084302000871050008430200083A
:10016000430200084302000843020008430200085B
:1001700043020008430200080000000000000000E5
:10018000430200084302000800F002F800F03CF8C7
:100190000AA090E8000C82448344AAF10107DA45E2
:1001A00001D100F031F8AFF2090EBAE80F0013F0F8
:1001B000010F18BFFB1A43F001031847B485000074
:1001C000D4850000103A24BF78C878C1FAD8520705
:1001D00024BF30C830C144BF04680C6070470000C1
:1001E0000023002400250026103A28BF78C1FBD840
:1001F000520728BF30C148BF0B6070471FB508F0D9
:100200005EFA1FBD10B510BD00F04FF91146FFF7A3
:10021000F5FF05F02FFA00F06DF903B4FFF7F2FFD8
:1002200003BC00F075F90000094880470948004701
:10023000FEE7FEE7FEE7FEE7FEE7FEE7FEE7FEE796
:10024000FEE7FEE704480549054A064B70470000F3
:100250001541000889010008104F0020105B0020A4
:10026000105700201057002053EA020C00F069805C
:100270002DE9F04B4FF00006002B1FBFB3FA83F5BA
:1002800003FA05F424FA05F65E4012BF1643B2FAEB
:1002900082F502FA05F4C5F120051EBF22FA05FC1D
:1002A00044EA0C04203556EA044C4FEA144418BFC3
:1002B000641C4FF000084FF00009904271EB030CF2
:1002C00039D3002919BFB1FA81F701FA07F6B0FA5C
:1002D00080F700FA07F6C7F120071EBF20FA07FCD7
:1002E00046EA0C062037B6FBF4FCA7EB0507103FE7
:1002F00007F01F0BCBF120062CFA06F60CFA0BFBCD
:1003000044BFB3460026202FA4BF5E464FF0000B2B
:100310005BEA060C08BF4FF0010B19EB0B0948EB29
:100320000608ABFB027C06FB02CC0BFB03CCC01B1C
:1003300071EB0C01C1E70B46024641464846BDE859
:10034000F08B13B5084318BF4FF0FF300146AFF3F1
:100350000080BDE81C407047032A40F2308010F056
:10036000030C00F0158011F8013BBCF1020F624450
:1003700098BF11F801CB00F8013B38BF11F8013BE1
:10038000A2F1040298BF00F801CB38BF00F8013B8E
:1003900011F0030300F05780083AC0F0088051F8CC
:1003A000043B083A51F804CBA0E80810F5E7121D09
:1003B0005CBF51F8043B40F8043BAFF30080D20728
:1003C00024BF11F8013B11F801CB48BF11F8012BF4
:1003D00024BF00F8013B00F801CB48BF00F8012B17
:1003E000704702F0FF0343EA032242EA024200F0B0
:1003F00002B84FF0000200B51346944696462039E5
:1004000022BFA0E80C50A0E80C50B1F12001BFF4CD
:10041000F7AF090728BFA0E80C5048BF0CC05DF833
:1004200004EB890028BF40F8042B08BF704748BF81
:1004300020F8022B11F0804F18BF00F8012B7047F5
:1004400070477047704710B5203AC0F00B80B1E894
:100450001850A0E81850B1E81850A0E81850203AF9
:10046000BFF4F5AF5FEA027C24BFB1E81850A0E802
:10047000185044BF18C918C0BDE810405FEA827C1C
:1004800024BF51F8043B40F8043B08BF7047D20733
:1004900028BF31F8023B48BF11F8012B28BF20F8D4
:1004A000023B48BF00F8012B7047754600F02CF85E
:1004B000AE4605006946534620F00700854618B051
:1004C00020B5FFF7BFFEBDE820404FF000064FF01B
:1004D00000074FF000084FF0000BAC46ACE8C00935
:1004E000ACE8C009ACE8C009ACE8C00921F00701DC
:1004F0008D46704710B50446AFF300802046BDE836
:100500001040FFF78ABE000000487047100000202E
:1005100001491820ABBEFEE726000200704700002C
:10052000FFE7FEE780B540F2F820C2F2000000F0DD
:10053000DBFB80BD80B540F2F820C2F2000000F085
:10054000D3FB80BD81B08DED000A9DED000A9FEDCB
:10055000031A80EE010A01B0704700BF0000B443E7
:1005600080B540F22030C2F2000001F055F880BDA5
:1005700080B540F28030C2F2000001F04DF880BD3D
:1005800082B001900198007810384AF6AB21CAF683
:10059000AA21A0FB011000090090009948F2F06028
:1005A000C0F60000405C0199C8650098042807D394
:1005B000FFE701990868042262F30900886506E0F4
:1005C0000199086840F2FF3290438865FFE701987F
:1005D000806D02B07047000086B0059000208DF855
:1005E00013000598806A03900598806910BBFFE7A7
:1005F0000398029003281BD80299DFE801F0020D4E
:100600000218059890F82F00C00720B1FFE70120DD
:100610008DF81300FFE70CE00598C06AB0F1C07FC9
:1006200004D1FFE701208DF81300FFE701E000E0AF
:10063000FFE745E005988069B0F5005F25D1FFE749
:100640000398019003281ED80199DFE801F0020603
:10065000021101208DF8130016E0059890F82F0084
:10066000C00720B1FFE701208DF81300FFE70BE082
:100670000598C06AB0F1C07F04D1FFE701208DF872
:100680001300FFE700E0FFE719E00398009003285C
:1006900004D3FFE70098032804D00EE001208DF872
:1006A00013000BE0059890F82F00C00720B1FFE77A
:1006B00001208DF81300FFE700E0FFE7FFE7FFE709
:1006C0009DF8130006B0704780B582B00190019884
:1006D00004F0A8FF78B9FFE7019991F80001013013
:1006E00000F0070081F80001019991F8020101383A
:1006F00081F80201FFE702B080BD000070470000F2
:1007000080B54FF4006001F0D5F980BD80B584B0AC
:10071000039002918DF807200093039804F096FF50
:1007200040BBFFE70298039991F8012152018850DC
:100730009DF80700039991F8012101EB421108612E
:10074000039890F8011100EB4110183000999DF8C2
:100750000720FFF701FE039991F80101013000F035
:10076000070081F80101039991F80201013081F835
:100770000201FFE704B080BD72B6FFE7FEE70000AC
:1007800084B002900191029890F820008DF8030047
:100790009DF80300012805D0FFE79DF8030002281B
:1007A0000AD1FFE7019A029801684869104348613D
:1007B00000208DF80F0008E00299486A40F480207C
:1007C000486201208DF80F00FFE79DF80F0004B08C
:1007D0007047000088B00690059104920393069834
:1007E00090F820008DF80700069800688068009057
:1007F0000598806808B9FFE700E0FFE79DF807006B
:10080000012806D0FFE79DF80700022840F080800D
:10081000FFE79DF80300400700280CD4FFE79DF890
:1008200003000007002806D4FFE79DF80300C00678
:10083000002864D5FFE70098C0F301600290029998
:1008400001208840039908600598806868B9FFE72F
:1008500005980168C06840EA415006990968029A03
:1008600001EB0211C1F880010EE005994A68886821
:10087000C96840EAC200084306990968029A01EB78
:100880000211C1F88001FFE705980069069909681F
:10089000029A01EB0211C1F884010598007D01283C
:1008A0000CD1FFE706980068029900EB0111D1F81E
:1008B000840140F48070C1F88401FFE70498406827
:1008C00006990968029A01EB0211C1F88C0104989B
:1008D000006806990968029A01EB0211C1F88801C3
:1008E00006980068029900EB0111D1F8800140F0F0
:1008F0000100C1F8800100208DF81F0011E0069969
:10090000486A40F40010486201208DF81F0008E09A
:100910000699486A40F48020486201208DF81F0043
:10092000FFE79DF81F0008B07047000086B00490F4
:100930000391049890F820008DF803009DF80300BF
:10094000012806D0FFE79DF80300022840F0B080A0
:10095000FFE746F20040C4F2000001900199D1F88F
:10096000000240F00100C1F800020199D1F8000234
:1009700020F47C50C1F800020398426A0199D1F832
:10098000000240EA0220C1F800020398406900F02A
:100990001F01012088400290029A0199D1F81C029F
:1009A0009043C1F81C020398C069F0B9FFE7029AAE
:1009B0000199D1F80C029043C1F80C02039A908877
:1009C000D168526940EA0140019901EBC201C1F8C6
:1009D0004002039A10889168526940EA01400199E7
:1009E00001EBC201C1F84402FFE70398C069012886
:1009F0001ED1FFE7029A0199D1F80C021043C1F809
:100A00000C02039A90881168526940EA01400199EA
:100A100001EBC201C1F84002039A908991685269C2
:100A200040EA0140019901EBC201C1F84402FFE72D
:100A30000398806940B9FFE7029A0199D1F804024E
:100A40009043C1F8040207E0029A0199D1F8040228
:100A50001043C1F80402FFE70398006940B9FFE7BB
:100A6000029A0199D1F814029043C1F8140207E0E8
:100A7000029A0199D1F814021043C1F81402FFE759
:100A80000398006A012808D1FFE7029A0199D1F87A
:100A90001C021043C1F81C02FFE70199D1F80002C3
:100AA00020F00100C1F8000200208DF8170008E0D6
:100AB0000499486A40F48020486201208DF81700AC
:100AC000FFE79DF8170006B07047000081B0009066
:100AD00001B0704786B0049003910292019304988C
:100AE00090F820008DF803009DF80300012806D03F
:100AF000FFE79DF80300022840F0E880FFE7039835
:100B000080B9FFE704980068C068800748B9FFE72C
:100B10000499486A40F40010486201208DF81700DB
:100B2000DDE00FE0049800680069800748B9FFE73E
:100B30000499486A40F40010486201208DF81700BB
:100B4000CDE0FFE704980068039900EB0110D0F8AE
:100B5000B00100F00400029988600298806858B9DA
:100B6000FFE704980068039900EB0110D0F8B0018A
:100B7000400D029908600AE004980068039900EBB0
:100B80000110D0F8B001C00802994860FFE704984E
:100B90000068039900EB0110D0F8B00100F00200EA
:100BA0000299C86004980068039900EB0110D0F81E
:100BB000B40100F00F00082804D3FFE702990820D1
:100BC00008610BE004980068039900EB0110D0F86D
:100BD000B40100F00F0002990861FFE70498006873
:100BE000039900EB0110D0F8B40180B2000A029919
:100BF000886104980068039900EB0110D0F8B401F3
:100C0000000C0299486104980068039900EB0110F8
:100C1000D0F8B8010199087004980068039900EBB6
:100C20000110D0F8B801000A0199487004980068D2
:100C3000039900EB0110D0F8B801000C01998870FD
:100C400004980068039900EB0110D0F8B801000E79
:100C50000199C87004980068039900EB0110D0F85E
:100C6000BC010199087104980068039900EB011018
:100C7000D0F8BC01000A01994871049800680399F2
:100C800000EB0110D0F8BC01000C019988710498A8
:100C90000068039900EB0110D0F8BC01000E019927
:100CA000C871039838B9FFE704980168C86840F034
:100CB0002000C86006E004980168086940F0200040
:100CC0000861FFE700208DF8170008E00499486AE2
:100CD00040F48020486201208DF81700FFE79DF85E
:100CE000170006B07047000080B58AB00990002058
:100CF0000890099800684069079009980068406862
:100D00000690099800688068059009980068C06896
:100D10000490099800680069039009980068806948
:100D200002909DF81C00C007002800F09480FFE7A7
:100D30009DF81400C00758B3FFE709980168012027
:100D400088609DF814008007002804D5FFE7099803
:100D500000F0B2FB1BE09DF814004007002805D509
:100D6000FFE7089840F4006008900FE09DF8140039
:100D70000007002805D5FFE7089840F48050089048
:100D800003E0099800F094FBFFE7FFE7FFE7FFE7C8
:100D90009DF81500C00760B3FFE7099801684FF49C
:100DA000807088609DF815008007002804D5FFE753
:100DB000099800F089FB1BE09DF81500400700280A
:100DC00005D5FFE7089840F4005008900FE09DF823
:100DD00015000007002805D5FFE7089840F480407B
:100DE000089003E0099800F06BFBFFE7FFE7FFE7DF
:100DF000FFE79DF81600C00760B3FFE70998016898
:100E00004FF4803088609DF816008007002804D5D4
:100E1000FFE7099800F060FB1BE09DF81600400713
:100E2000002805D5FFE7089840F4004008900FE03F
:100E30009DF816000007002805D5FFE7089840F444
:100E40008030089003E0099800F042FBFFE7FFE7DD
:100E5000FFE7FFE7FFE79DF81C000007002810D51B
:100E6000FFE79DF81000C006002809D5FFE70898A5
:100E700040F400700890099801681020C860FFE7EE
:100E8000FFE79DF81C00400700280FD5FFE79DF8FD
:100E900010000007002808D5FFE70998016808201E
:100EA000C860099800F066FAFFE7FFE79DF81C00AC
:100EB000800700280BD5FFE709980068C068800705
:100EC00020B1FFE7099800F059FAFFE7FFE79DF826
:100ED0001C004006002810D5FFE79DF80C00C00656
:100EE000002809D5FFE7089840F480600890099829
:100EF000016810200861FFE7FFE79DF81C008006ED
:100F000000280FD5FFE79DF80C000007002808D542
:100F1000FFE70998016808200861099800F076FA4F
:100F2000FFE7FFE79DF81C00C00600280BD5FFE790
:100F3000099800680069800720B1FFE7099800F070
:100F400069FAFFE7FFE79DF81E00800700280FD52C
:100F5000FFE79DF81800C006002808D5FFE70998AC
:100F6000016810204860099800F058FAFFE7FFE791
:100F70009DF81E00C00778B1FFE79DF81800000734
:100F8000002808D5FFE709980168082048600998FB
:100F900000F0A6FAFFE7FFE79DF81D000006002815
:100FA00040F18D80FFE79DF818004007002840F1D0
:100FB0008180FFE79DF81D00C00750B1FFE79DF855
:100FC0000800C00728B1FFE7089840F0010008902A
:100FD000FFE79DF81D00800700280BD5FFE79DF86F
:100FE00008008007002805D5FFE7089840F00200B8
:100FF0000890FFE79DF81D00400700280BD5FFE78C
:101000009DF808004007002805D5FFE7089840F044
:1010100004000890FFE79DF81D000007002848D550
:10102000FFE79DF8080010F0700F42D0FFE702982C
:1010300000F0700001460191102814D0FFE70198DC
:10104000202815D0FFE70198302816D0FFE7019837
:10105000402817D0FFE70198502818D0FFE70198E3
:10106000602819D01DE0089840F00800089019E0A9
:10107000089840F01000089014E0089840F0200014
:1010800008900FE0089840F0400008900AE00898A7
:1010900040F08000089005E0089840F480700890C7
:1010A00000E0FFE709980168886920F07000886116
:1010B000FFE7FFE70998016804204860FFE7089808
:1010C00048B1FFE7089A0999486A104348620998AD
:1010D000FFF7FCFCFFE70AB080BD000080B584B0DC
:1010E0000290029820B9FFE701208DF80F00E0E0A0
:1010F000029890F8200020B9FFE7029800F0DEF88F
:10110000FFE702980168086840F00100086000F0FD
:10111000E1FE0190FFE7029800684068C007A8B9A7
:10112000FFE700F0D7FE0199401A0B280DD3FFE727
:101130000299486A40F4003048620299052081F81B
:10114000200001208DF80F00B3E0E4E70298016869
:10115000086820F00200086000F0BCFE0190FFE784
:101160000298006840688007002815D5FFE700F066
:10117000B1FE0199401A0B280DD3FFE70299486A86
:1011800040F4003048620299052081F820000120D7
:101190008DF80F008DE0E3E70298007E012807D16B
:1011A000FFE702980168086840F08000086006E0E8
:1011B00002980168086820F080000860FFE7029844
:1011C000407E012807D1FFE702980168086840F0D7
:1011D0004000086006E002980168086820F04000BE
:1011E0000860FFE70298807E012807D1FFE7029898
:1011F0000168086840F02000086006E00298016875
:10120000086820F020000860FFE70298C07E0128EF
:1012100007D1FFE702980168086820F01000086015
:1012200006E002980168086840F010000860FFE7D7
:101230000298007F012807D1FFE70298016808683B
:1012400040F00800086006E002980168086820F095
:1012500008000860FFE70298407F012807D1FFE7F8
:1012600002980168086840F00400086006E00298EF
:101270000168086820F004000860FFE7029B196815
:101280005A689868D3F80CC040EA0C00D3F810C034
:1012900040EA0C005B691843013A1043C8610299A7
:1012A00000204862029A012182F820108DF80F0078
:1012B000FFE79DF80F0004B080BD000080B58CB042
:1012C0000B9000200A9009900890079006900B98C8
:1012D000006846F20041C4F20001884248D1FFE7AD
:1012E000FFE70020059043F64000C4F202000168C9
:1012F00041F000710160006800F0007005900598F1
:10130000FFE7FFE70020049043F63000C4F202003C
:10131000016841F001010160006800F001000490E3
:101320000498FFE74FF4C050069002200790002079
:10133000029008900320099009200A900020C4F22E
:10134000020006A900F0D2FB029A142000900521A9
:10135000019100F093FE009800F086FE0199029A38
:101360001520039000F08AFE039800F07DFEFFE751
:101370000CB080BD81B0009001B0704770B586B0F0
:1013800005900598006846F20041C4F200018842C9
:1013900039D1FFE7059840F28002C2F2000240F224
:1013A0007803C2F200030021FFF794FB50BBFFE774
:1013B00040F28000C2F20000806810BBFFE740F2FC
:1013C000800EC2F2000EDEF80000DEF80410DEF837
:1013D0000820DEF80C30DEF810C0DEF81440DEF82D
:1013E000185040F27806C2F20006EE46CEF80C60C5
:1013F000CEF80850CEF80440CEF800C003F0E6FC6A
:10140000FFE7FFE7FFE706B070BD000081B0009086
:1014100001B0704781B0009001B0704781B000907A
:1014200001B0704780B584B00290029890F8200017
:1014300001282FD1FFE70299022081F820000298AD
:101440000168086820F00100086000F043FD019089
:10145000FFE7029800684068C007A8B1FFE700F006
:1014600039FD0199401A0B280DD3FFE70299486A0C
:1014700040F4003048620299052081F820000120E4
:101480008DF80F000FE0E4E70299002048628DF824
:101490000F0008E00299486A40F4002048620120E9
:1014A0008DF80F00FFE79DF80F0004B080BD00002D
:1014B00081B0009001B0704781B0009001B07047DA
:1014C00081B0009001B0704781B0009001B07047CA
:1014D00081B0009001B0704781B0009001B07047BA
:1014E00081B0009001B0704780B584B0029002983E
:1014F000806D019000F0EEFC0090029890F83500AD
:1015000002280DD0FFE7029980204865FFE7029985
:10151000002081F83400FFE701208DF80F0055E02E
:1015200002980168086820F01600086002980168B7
:10153000486920F0800048610298006C20B9FFE7FC
:101540000298806C38B1FFE702980168086820F0C3
:1015500008000860FFE702980168086820F00100B1
:101560000860FFE7029800680068C007C8B1FFE79D
:1015700000F0B0FC0099401A062811D3FFE7029949
:10158000202048650299032081F83500FFE7029981
:10159000002081F83400FFE703208DF80F0015E0EC
:1015A000E0E70298C16D3F20884001998860029968
:1015B000012081F83500FFE70299002081F834000E
:1015C000FFE7FFE700208DF80F00FFE79DF80F0011
:1015D00004B080BD82B00090009890F835000228D9
:1015E00007D0FFE700998020486501208DF80700AB
:1015F0000EE00099052081F8350000980168086820
:1016000020F001000860FFE700208DF80700FFE7E9
:101610009DF8070002B0704780B586B005900020A5
:10162000039040F20000C2F20000006848F2B511D9
:10163000C1F64E31A0FB0110800A02900598806D22
:10164000019001980068049004980599C96DC840FC
:10165000000700281AD5FFE70598006800684007D2
:10166000002812D5FFE705980168086820F00400FB
:1016700008600598C16D0820884001998860059927
:10168000486D40F001004865FFE7FFE704980599C1
:10169000C96DC840C007A0B1FFE705980068406960
:1016A000000600280CD5FFE70598C16D0120884091
:1016B000019988600599486D40F002004865FFE790
:1016C000FFE704980599C96DC8404007002814D564
:1016D000FFE7059800680068800700280CD5FFE741
:1016E0000598C16D04208840019988600599486D6E
:1016F00040F004004865FFE7FFE704980599C96DCD
:10170000C840C006002847D5FFE705980068006874
:10171000000700283FD5FFE70598C16D10208840DD
:1017200001998860059800680068400300281AD570
:10173000FFE70598006800680003002809D4FFE768
:101740000598006C20B1FFE70598016C8847FFE71A
:1017500008E00598806C20B1FFE70598816C884708
:10176000FFE7FFE716E0059800680068C00500285D
:1017700007D4FFE705980168086820F008000860B2
:10178000FFE70598006C20B1FFE70598016C8847DA
:10179000FFE7FFE7FFE7FFE704980599C96DC84039
:1017A0008006002840F18D80FFE7059800680068FA
:1017B000C006002840F18480FFE70598C16D202015
:1017C000884001998860059890F83500052834D143
:1017D000FFE705980168086820F016000860059882
:1017E0000168486920F0800048610598006C20B9C4
:1017F000FFE70598806C38B1FFE705980168086835
:1018000020F008000860FFE70598C16D3F20884080
:10181000019988600599012081F83500FFE7059955
:10182000002081F83400FFE70598006D20B1FFE744
:101830000598016D8847FFE77BE005980068006820
:10184000400300281AD5FFE70598006800680003E8
:10185000002809D4FFE70598406C20B1FFE7059800
:10186000416C8847FFE708E00598C06B20B1FFE7AF
:101870000598C16B8847FFE7FFE720E005980068FF
:101880000068C005002811D4FFE7059801680868C2
:1018900020F0100008600599012081F83500FFE76D
:1018A0000599002081F83400FFE7FFE70598C06B39
:1018B00020B1FFE70598C16B8847FFE7FFE7FFE727
:1018C000FFE70598406DA0B3FFE70598406DC0079E
:1018D00030B3FFE70599052081F8350005980168C8
:1018E000086820F001000860FFE7039801300390CA
:1018F0000299884201D9FFE707E0FFE705980068F1
:101900000068C0070028F0D1FFE70599012081F8A1
:101910003500FFE70599002081F83400FFE7FFE775
:101920000598C06C20B1FFE70598C16C8847FFE7B8
:10193000FFE706B080BD000080B586B004900020AF
:10194000039000F0C7FA0290049820B9FFE7012045
:101950008DF81700A3E00498406A08B1FFE7FFE79D
:101960000499022081F83500FFE70499002081F8EE
:101970003400FFE704980168086820F0010008605F
:10198000FFE7049800680068C00790B1FFE700F027
:10199000A1FA0299401A06280AD3FFE704992020E9
:1019A00048650499032081F835008DF8170076E02A
:1019B000E7E70498006800680390039848F23F0145
:1019C000CFF2100108400390049900914868D1F8C3
:1019D00008C0CB680A6940EA0C00184310434A6902
:1019E00010438A691043CA691043096A0143039886
:1019F000084303900498406A042808D1FFE704993B
:101A0000C86A096B0143039808430390FFE70398F2
:101A10000499096808600498006840690390039875
:101A200020F0070003900498416A0398084303904C
:101A30000498406A04281AD1FFE70498816A039841
:101A4000084303900498C06A80B1FFE70498FEF74A
:101A5000C3FD50B1FFE70499402048650499012077
:101A600081F835008DF8170019E0FFE7FFE70398CC
:101A70000499096848610498FEF782FD0190049872
:101A8000C16D3F2088400199886004990020486515
:101A9000049A012182F835108DF81700FFE79DF8B0
:101AA000170006B080BD000081B0ADF8020001B0A3
:101AB0007047000080B582B0ADF8060043F61440D0
:101AC000C4F201000068BDF8061008420CD0FFE720
:101AD000BDF8060043F61441C4F201010860BDF8E8
:101AE0000600FFF7E1FFFFE702B080BD8EB00D906A
:101AF0000C9100200A90099008900B90FFE70B983A
:101B00000F2800F2CC81FFE70B99012088400A9052
:101B10000C9800680A990840099009980A99884227
:101B200040F0B881FFE70C98406800F003000128FE
:101B300007D0FFE70C98406800F0030002282FD17F
:101B4000FFE70D98806808900B984100032000FA89
:101B500001F10898884308900C98C0680B994900D7
:101B600000FA01F108980843089008980D998860D8
:101B70000D98406808900B99012000FA01F108982F
:101B8000884308900C984068C0F300100B9900FA45
:101B900001F108980843089008980D994860FFE7FC
:101BA0000C98406800F00300032818D0FFE70D9858
:101BB000C06808900B984100032000FA01F10898D2
:101BC000884308900C9880680B99490000FA01F14D
:101BD00008980843089008980D99C860FFE70C988A
:101BE000406800F00300022826D1FFE70D980B990A
:101BF0006FF0030202EA51010844006A08900B9852
:101C000000F0070081000F2000FA01F108988843D6
:101C100008900C9800690B9901F00701890000FAFF
:101C200001F108980843089008980D990B9B02EA67
:101C3000530211440862FFE70D98006808900B9862
:101C40004100032000FA01F10898884308900C989D
:101C5000406800F003000B99490000FA01F1089870
:101C60000843089008980D9908600C9880798007BF
:101C7000002800F00E81FFE7FFE70020079043F601
:101C80004400C4F20200016841F480410160006830
:101C900000F4804007900798FFE70B9820F00300BE
:101CA00043F60801C4F20101405808900B9800F077
:101CB000030081000F2000FA01F108988843089082
:101CC0000D980021C4F20201884203D1FFE70020F1
:101CD00006905EE00D9840F20041C4F20201884295
:101CE00003D1FFE70120059050E00D9840F6000178
:101CF000C4F20201884203D1FFE70220049042E0CF
:101D00000D9840F60041C4F20201884203D1FFE77A
:101D10000320039034E00D9841F20001C4F2020167
:101D2000884203D1FFE70420029026E00D9841F29B
:101D30000041C4F20201884203D1FFE7052001906F
:101D400018E00D9841F60001C4F20201884203D167
:101D5000FFE7062000900AE00D9941F60042C4F228
:101D600002020820914208BF07200090FFE7009878
:101D70000190FFE701980290FFE702980390FFE7C8
:101D800003980490FFE704980590FFE705980690F4
:101D9000FFE70698C0B20B9901F00301890000FA31
:101DA00001F108980843089008980B9921F0030165
:101DB00043F60802C4F20102885043F60840C4F218
:101DC00001000068089009990898884308900C98C9
:101DD0008079C006002805D5FFE7099908980843CF
:101DE0000890FFE7089843F60841C4F20101086033
:101DF00043F60C40C4F20100006808900999089865
:101E0000884308900C9880798006002805D5FFE764
:101E10000999089808430890FFE7089843F60C4191
:101E2000C4F20101086043F60440C4F201000068F6
:101E3000089009990898884308900C988079800741
:101E4000002805D5FFE70999089808430890FFE79F
:101E5000089843F60441C4F20101086043F60040CB
:101E6000C4F2010000680890099908988843089016
:101E70000C988079C00728B1FFE7099908980843B2
:101E80000890FFE7089843F60041C4F2010108609A
:101E9000FFE7FFE7FFE70B9801300B902FE60EB04E
:101EA0007047000082B00190ADF802108DF801205B
:101EB0009DF8010028B1FFE7BDF802000199886193
:101EC00005E0BDF80200000401998861FFE702B057
:101ED0007047000044F23470C2F20000006870479E
:101EE00040F20400C2F20000027844F23471C2F2FF
:101EF00000010868104408607047000080B543F690
:101F00000041C4F20201086840F4007008600868EB
:101F100040F480600860086840F480700860032026
:101F200000F0C6F80F2000F005F800F071F800206E
:101F300080BD000080B58CB00B900020059004900F
:101F4000FFE70020019043F64400C4F2020001685C
:101F500041F001010160006800F00100019001986A
:101F6000FFE706A803A900F0DDF900F01DFA400024
:101F7000059005984DF68361C4F21B31A0FB010169
:101F80004FF0FF3000EB9140049040F2E030C2F29D
:101F900000000021C4F20101016040F2E731C1609C
:101FA00004994160002101618160816100F07CFE43
:101FB0008DF80B009DF80B0028BBFFE740F2E030E6
:101FC000C2F2000000F0E8FE8DF80B009DF80B0057
:101FD000C0B9FFE7192000F047F80B980F280CD87C
:101FE000FFE70B991920002200F048F80B9840F207
:101FF0000801C2F20001086003E001208DF80B0027
:10200000FFE7FFE7FFE79DF80B000CB080BD000085
:1020100080B582B0FFE70020019043F64400C4F28F
:102020000200016841F480410160006800F48040D2
:1020300001900198FFE7FFE70020009043F6400081
:10204000C4F20200016841F080510160006800F0B4
:10205000805000900098FFE76FF001000F210022F0
:1020600000F00CF802B080BD80B582B08DF807009A
:102070009DF9070003F01CFA02B080BD80B586B060
:102080008DF81700049103920020029003F028FAC3
:1020900002909DF91700019002980499039A01F0AB
:1020A00027FF0146019803F023FA06B080BD000027
:1020B00080B582B00190019803F05EFA02B080BD55
:1020C00080B584B002900191029820B9FFE7012009
:1020D0008DF80F0021E1019843F60041C4F202019E
:1020E000096801F00701884212D9FFE7019943F618
:1020F0000040C4F202000170006800F0070001997E
:10210000884204D0FFE701208DF80F0005E1FFE7CA
:1021100002980078800700282AD5FFE70298007807
:102120004007002809D5FFE743F60801C4F2020181
:10213000086840F4E0500860FFE702980078000764
:10214000002809D5FFE743F60801C4F20201086838
:1021500040F460400860FFE743F60801C4F2020162
:10216000086820F0F000029A926810430860FFE7C8
:1021700002980078C00700286ED0FFE702984068F8
:10218000012811D1FFE743F60000C4F20200006805
:1021900000F400310020B0EB514F04D1FFE70120E3
:1021A0008DF80F00B9E02CE002984068022805D0B5
:1021B000FFE702984068032811D1FFE743F60000CB
:1021C000C4F20200006800F000710020B0EB516F13
:1021D00004D1FFE701208DF80F009EE010E043F6E8
:1021E0000000C4F20200006800F002010020B0EB21
:1021F000510F04D1FFE701208DF80F008DE0FFE7BC
:10220000FFE743F60801C4F20201086820F003006A
:10221000029A526810430860FFF75CFE0090FFE7E7
:1022200043F60800C4F20200006800F00C000299B6
:102230004968B0EB810F0ED0FFE7FFF74BFE009926
:10224000401A41F28931884204D3FFE703208DF818
:102250000F0062E0E4E7FFE7019843F60041C4F2B3
:102260000201096801F00701884212D2FFE70199D3
:1022700043F60040C4F202000170006800F007005D
:102280000199884204D0FFE701208DF80F0044E057
:10229000FFE702980078400700280CD5FFE743F6D7
:1022A0000801C4F20201086820F4E050029AD268E2
:1022B00010430860FFE702980078000700280DD55A
:1022C000FFE743F60801C4F20201086820F4604009
:1022D000029A126940EAC2000860FFE700F076F84F
:1022E00043F60801C4F202010968C9B20A0948F2BA
:1022F000D861C0F60001895CC84040F20001C2F21A
:102300000001086040F20800C2F200000068FFF718
:1023100011FE00208DF80F00FFE79DF80F0004B0BC
:1023200080BD000082B00190009101990F200860EB
:1023300043F60800C4F20200016801F00301019AAB
:102340005160016801F0F001019A9160016801F4A7
:10235000E051019AD160006800F46040C008019922
:10236000086143F60040C4F20200006800F0070074
:102370000099086002B0704740F20000C2F200000D
:102380000068704780B5FFF7F7FF43F60801C4F215
:1023900002010968C1F3822248F2E861C0F6000137
:1023A000895CC84080BD000080B5FFF7E5FF43F6BB
:1023B0000801C4F20201096889B24A0B48F2E861D7
:1023C000C0F60001895CC84080BD000080B586B0C1
:1023D0000020059004900390029043F60800C4F298
:1023E0000200006800F00C000146019140B1FFE7D7
:1023F000019804280AD0FFE7019808280CD04FE084
:1024000042F20040C0F2F40002904FE047F6400074
:10241000C0F27D10029049E043F60400C4F20200CD
:10242000016801F03F01059100684002002813D5C2
:10243000FFE743F60400C4F202000068C0F388100E
:1024400047F64001C0F27D11A0FB0101059A00236F
:10245000FDF70AFF049012E043F60400C4F2020004
:102460000068C0F3881042F20041C0F2F401A0FB02
:102470000101059A0023FDF7F7FE0490FFE743F6FC
:102480000400C4F20200006800F44031022000EBB6
:10249000D130039004980399B0FBF1F0029005E06D
:1024A00042F20040C0F2F4000290FFE7029806B04A
:1024B00080BD000080B586B00490049820B9FFE785
:1024C00001208DF8170050E304980078C007002819
:1024D00000F0A580FFE743F60800C4F202000068A0
:1024E00000F00C00042813D0FFE743F60800C4F204
:1024F0000200006800F00C0008281ED1FFE743F638
:102500000400C4F2020000684002002815D5FFE76D
:1025100043F60000C4F20200006800F4003100201D
:10252000B0EB514F08D0FFE70498406820B9FFE7AF
:1025300001208DF8170018E370E0FFE70498406869
:10254000B0F5803F09D1FFE743F60001C4F2020174
:10255000086840F48030086020E004984068B0F5D6
:10256000A02F0DD1FFE743F60001C4F20201086875
:1025700040F480200860086840F4803008600CE077
:1025800043F60001C4F20201086820F480300860BC
:10259000086820F480200860FFE7FFE7FFE7049861
:1025A0004068E8B1FFE7FFF795FC0390FFE743F6CB
:1025B0000000C4F20200006800F400310020B0EB1B
:1025C000514F0CD1FFE7FFF785FC0399401A6528AE
:1025D00004D3FFE703208DF81700C6E2E7E71CE00D
:1025E000FFF778FC0390FFE743F60000C4F2020017
:1025F000006800F400310020B0EB514F0CD0FFE731
:10260000FFF768FC0399401A652804D3FFE703200D
:102610008DF81700A9E2E7E7FFE7FFE7FFE7049877
:1026200000788007002840F19680FFE743F6080015
:10263000C4F20200006810F00C0F13D0FFE743F65D
:102640000800C4F20200006800F00C0008282CD139
:10265000FFE743F60400C4F20200006840020028CD
:1026600023D4FFE743F60000C4F20200006800F044
:1026700002010020B0EB510F09D0FFE70498C068B9
:10268000012804D0FFE701208DF817006DE243F622
:102690000001C4F20201086820F0F800049A1269EF
:1026A00040EAC2000860FFE754E00498C06870B3D5
:1026B000FFE70021C4F2472101200860FFF70AFC70
:1026C0000390FFE743F60000C4F20200006800F048
:1026D00002010020B0EB510F0CD1FFE7FFF7FAFB2E
:1026E0000399401A032804D3FFE703208DF817004D
:1026F0003BE2E7E743F60001C4F20201086820F07C
:10270000F800049A126940EAC200086021E0002142
:10271000C4F2472100200860FFF7DCFB0390FFE7CD
:1027200043F60000C4F20200006800F0020100203D
:10273000B0EB510F0CD0FFE7FFF7CCFB0399401A29
:10274000032804D3FFE703208DF817000DE2E7E725
:10275000FFE7FFE7FFE704980078000700284BD564
:10276000FFE70498406918B3FFE740F68061C4F2C0
:10277000472101200860FFF7ADFB0390FFE743F618
:102780007400C4F20200006800F002010020B0EB07
:10279000510F0CD1FFE7FFF79DFB0399401A032867
:1027A00004D3FFE703208DF81700DEE1E7E722E01E
:1027B00040F68061C4F2472100200860FFF78AFBE1
:1027C0000390FFE743F67400C4F20200006800F0D3
:1027D00002010020B0EB510F0CD0FFE7FFF77AFBAE
:1027E0000399401A032804D3FFE703208DF817004C
:1027F000BBE1E7E7FFE7FFE7049800784007002820
:1028000040F1CE80FFE700208DF8070043F640003E
:10281000C4F202000068C000002815D4FFE7FFE7FB
:102820000020009043F64000C4F20200016841F02D
:1028300080510160006800F0805000900098FFE730
:1028400001208DF80700FFE747F20000C4F2000006
:102850000068C005002822D4FFE747F20001C4F257
:102860000001086840F480700860FFF733FB0390B4
:10287000FFE747F20000C4F200000068C00500282E
:102880000CD4FFE7FFF726FB0399401A032804D373
:10289000FFE703208DF8170067E1EAE7FFE7FFE7AE
:1028A00004988068012809D1FFE743F67001C4F25B
:1028B0000201086840F0010008601FE00498806889
:1028C00005280DD1FFE743F67001C4F20201086844
:1028D00040F004000860086840F0010008600CE067
:1028E00043F67001C4F20201086820F0010008609C
:1028F000086820F004000860FFE7FFE7FFE704989E
:102900008068F8B1FFE7FFF7E5FA0390FFE743F6C9
:102910007000C4F20200006800F002010020B0EB79
:10292000510F0ED1FFE7FFF7D5FA0399401A41F294
:102930008931884204D3FFE703208DF8170014E1A2
:10294000E5E71EE0FFF7C6FA0390FFE743F67000E5
:10295000C4F20200006800F002010020B0EB510F49
:102960000ED0FFE7FFF7B6FA0399401A41F289311A
:10297000884204D3FFE703208DF81700F5E0E5E770
:10298000FFE79DF80700012809D1FFE743F6400162
:10299000C4F20201086820F080500860FFE7FFE7FA
:1029A00004988069002800F0DC80FFE743F6080007
:1029B000C4F20200006800F00C00082800F08580D6
:1029C000FFE70498806902285CD1FFE76021C4F228
:1029D000472100200860FFF77DFA0390FFE743F6E8
:1029E0000000C4F20200006800F000710020B0EBAB
:1029F000516F0CD0FFE7FFF76DFA0399401A0328D7
:102A000004D3FFE703208DF81700AEE0E7E7049951
:102A1000C869D1F820C04B6A8A6A40EA0C0040EAD3
:102A20008310D2034FF6FF739A43A2F5803210430E
:102A3000C96A40EA016043F60401C4F20201086079
:102A40006021C4F2472101200860FFF743FA039098
:102A5000FFE743F60000C4F20200006800F00071D6
:102A60000020B0EB516F0CD1FFE7FFF733FA039969
:102A7000401A032804D3FFE703208DF8170074E001
:102A8000E7E721E06021C4F2472100200860FFF75A
:102A900021FA0390FFE743F60000C4F20200006849
:102AA00000F000710020B0EB516F0CD0FFE7FFF792
:102AB00011FA0399401A032804D3FFE703208DF885
:102AC000170052E0E7E7FFE74AE004988069012831
:102AD00004D1FFE701208DF8170046E043F604001B
:102AE000C4F202000068029004988069012831D085
:102AF000FFE7029800F480000499C969884229D14F
:102B0000FFE7029800F03F000499096A884221D14A
:102B1000FFE7029847F6C07108400499496AB0EB94
:102B2000811F17D1FFE7029800F440300499896AA9
:102B3000C9034FF6FF729143A1F58031884209D154
:102B4000FFE7029800F070600499C96AB0EB016F6A
:102B500004D0FFE701208DF8170006E0FFE7FFE74C
:102B6000FFE700208DF81700FFE79DF8170006B07B
:102B700080BD000081B0009001B0704781B000902E
:102B800001B0704785B003900291FFE7039890F879
:102B90003C00012804D1FFE702208DF813007EE0FD
:102BA0000399012081F83C00FFE7FFE70399022029
:102BB00081F83D0003980068406801900398006820
:102BC00080680090019820F07000019002980168E0
:102BD0000198084301900198039909684860039897
:102BE00000680021C4F2010188423CD0FFE703984D
:102BF0000068B0F1804F36D0FFE70398006840F2DC
:102C00000041C4F2000188422DD0FFE7039800681C
:102C100040F60001C4F20001884224D0FFE7039887
:102C2000006840F60041C4F2000188421BD0FFE773
:102C30000398006840F20041C4F20101884212D0BA
:102C4000FFE70398006844F20001C4F201018842E2
:102C500009D0FFE70398006841F60001C4F20001C3
:102C600088420ED1FFE7009820F080000090029883
:102C700041680098084300900098039909688860AB
:102C8000FFE70399012081F83D00FFE70399002049
:102C900081F83C00FFE700208DF81300FFE79DF866
:102CA000130005B07047000080B582B00090009816
:102CB00020B9FFE701208DF807003FE0009890F869
:102CC0003D0040B9FFE70099002081F83C000098E2
:102CD00000F038F8FFE70099022081F83D000099E4
:102CE00051F8040B01F030FA0099012081F84600F8
:102CF000FFE70099012081F83E00009981F83F002C
:102D0000009981F84000009981F84100FFE7FFE752
:102D10000099012081F84200009981F84300009950
:102D200081F84400009981F84500FFE700990120EF
:102D300081F83D0000208DF80700FFE79DF80700AF
:102D400002B080BD80B584B003900398006840F263
:102D50000041C4F2000188421BD1FFE7FFE70020D9
:102D6000029043F64000C4F20200016841F0020103
:102D70000160006800F0020002900298FFE71D2049
:102D8000019005210022FFF779F90198FFF76CF90E
:102D9000FFE704B080BD000083B00190019890F877
:102DA0003D00012804D0FFE701208DF80B006AE008
:102DB0000199022081F83D0001980168C86840F03F
:102DC0000100C860019800680021C4F20101884236
:102DD0003CD0FFE701980068B0F1804F36D0FFE7A4
:102DE0000198006840F20041C4F2000188422DD0F1
:102DF000FFE70198006840F60001C4F20001884234
:102E000024D0FFE70198006840F60041C4F20001B9
:102E100088421BD0FFE70198006840F20041C4F2ED
:102E20000101884212D0FFE70198006844F20001D6
:102E3000C4F20101884209D0FFE70198006841F619
:102E40000001C4F20001884212D1FFE70198006836
:102E5000806800F0070000900098062807D0FFE780
:102E600001980168086840F001000860FFE706E08B
:102E700001980168086840F001000860FFE7002041
:102E80008DF80B00FFE79DF80B0003B070470000C2
:102E900080B586B00490039100208DF80B00FFE709
:102EA000049890F83C00012804D1FFE702208DF837
:102EB0001700ABE00499012081F83C00FFE7FFE731
:102EC0000499022081F83D00049800688068019010
:102ED000019820F077000190019820F47F40019044
:102EE0000198049909688860039800680090002898
:102EF00072D0FFE7009810286ED0FFE700982028D6
:102F00006AD0FFE70098302866D0FFE70098402895
:102F100055D0FFE70098502837D0FFE70098602889
:102F200040D0FFE7009870280BD0FFE70098B0F57D
:102F3000805F05D0FFE70098B0F5005F16D052E043
:102F400055E004980068039B5A689968DB6801F0B3
:102F5000CDF90498006880680190019840F07700EE
:102F60000190019804990968886040E0049800681D
:102F7000039B5A689968DB6801F0B8F90498016806
:102F8000886840F48040886031E004980068039AC3
:102F90005168D26801F0B6FB04980068502101F036
:102FA000BFF924E004980068039A5168D26801F0E0
:102FB000D1FB04980068602101F0B2F917E0049891
:102FC0000068039A5168D26801F09CFB049800687D
:102FD000402101F0A5F90AE0049800680399096806
:102FE00001F09EF903E001208DF80B00FFE7049942
:102FF000012081F83D00FFE70499002081F83C00A2
:10300000FFE79DF80B008DF81700FFE79DF817000C
:1030100006B080BD81B0009001B0704780B584B02B
:10302000039003980068C0680290039800680069E4
:1030300001909DF804008007002824D5FFE79DF843
:103040000800800700281DD5FFE7039801686FF08E
:1030500002000861039901200877039800688069DD
:10306000800720B1FFE70398FFF7D4FF06E003983D
:1030700000F016F9039800F00BFAFFE7039900201F
:103080000877FFE7FFE79DF804004007002825D5F3
:10309000FFE79DF80800400700281ED5FFE70398CA
:1030A00001686FF004000861039902200877039813
:1030B0000068806910F4407F04D0FFE70398FFF7B1
:1030C000A9FF06E0039800F0EBF8039800F0E0F9A0
:1030D000FFE7039900200877FFE7FFE79DF804006A
:1030E0000007002824D5FFE79DF808000007002806
:1030F0001DD5FFE7039801686FF008000861039988
:103100000420087703980068C069800720B1FFE7B2
:103110000398FFF77FFF06E0039800F0C1F80398DB
:1031200000F0B6F9FFE7039900200877FFE7FFE713
:103130009DF80400C006002825D5FFE79DF808008B
:10314000C00600281ED5FFE7039801686FF0100045
:10315000086103990820087703980068C06910F493
:10316000407F04D0FFE70398FFF754FF06E0039881
:1031700000F096F8039800F08BF9FFE70399002020
:103180000877FFE7FFE79DF80400C00778B1FFE785
:103190009DF80800C00748B1FFE7039801686FF089
:1031A00001000861039800F077F9FFE7FFE79DF859
:1031B00004000006002810D5FFE79DF8080000066F
:1031C000002809D5FFE7039801686FF080000861C7
:1031D0000398FFF7CFFCFFE7FFE79DF804004006E8
:1031E000002810D5FFE79DF808004006002809D503
:1031F000FFE7039801686FF040000861039800F052
:103200005FF9FFE7FFE79DF804008006002810D56E
:10321000FFE79DF808008006002809D5FFE703981E
:1032200001686FF0200008610398FFF7A7FCFFE733
:10323000FFE704B080BD000080B588B00790002093
:10324000069005900490039002900798006840F261
:103250000041C4F20001884220D1FFE7FFE70020CF
:10326000019043F63000C4F20200016841F0010110
:103270000160006800F0010001900198FFE7C020A4
:1032800002900220039000210491059106900020F5
:10329000C4F2020002A9FEF729FCFFE708B080BDD6
:1032A00081B0009001B0704780B586B00490039162
:1032B000029200208DF80700FFE7049890F83C0088
:1032C000012804D1FFE702208DF8170089E0049956
:1032D000012081F83C00FFE7FFE7029800900C28EE
:1032E00000F270800099DFE801F0076D6D6D206DD0
:1032F0006D6D3A6D6D6D530004980068039901F08F
:1033000025F804980168886940F0080088610498ED
:103310000168886920F004008861039802690498B4
:10332000016888691043886150E004980068039937
:1033300001F082F804980168886940F400608861AF
:1033400004980168886920F48060886103980269A4
:1033500004980168886940EA0220886136E0049890
:103360000068039901F0E2F804980168C86940F028
:103370000800C86104980168C86920F00400C861A9
:103380000398026904980168C8691043C8611DE088
:1033900004980068039901F043F904980168C8692A
:1033A00040F40060C86104980168C86920F4806036
:1033B000C8610398026904980168C86940EA02205C
:1033C000C86103E001208DF80700FFE7FFE70499DB
:1033D000002081F83C00FFE79DF807008DF81700FA
:1033E000FFE79DF8170006B080BD000080B582B0F1
:1033F0000090009820B9FFE701208DF807003FE01A
:10340000009890F83D0040B9FFE70099002081F84E
:103410003C00009800F038F8FFE70099022081F89E
:103420003D00009951F8040B00F08EFE0099012038
:1034300081F84600FFE70099012081F83E000099DD
:1034400081F83F00009981F84000009981F841001F
:10345000FFE7FFE70099012081F84200009981F819
:103460004300009981F84400009981F84500FFE786
:103470000099012081F83D0000208DF80700FFE74A
:103480009DF8070002B080BD81B0009001B0704788
:1034900081B0009001B0704780B582B00190019872
:1034A00000680021C4F20101884203D1FFE7FEF762
:1034B00017FDFFE7019801F005F902B080BD00009B
:1034C00081B0009001B0704782B00190ADF8021059
:1034D00002B0704781B0009001B0704780B592B0E3
:1034E0001190119800680068109011980068C068E9
:1034F0000F901198006840690E9000200D900C907C
:10350000109800F00F000D900D9888B9FFE79DF816
:103510004000800600280AD5FFE79DF83C008006A1
:10352000002804D5FFE7119801F0B8F902E2FFE79F
:103530000D98002800F0C280FFE79DF83800C00712
:1035400038B9FFE7BDF83C0010F4907F00F0B6807A
:10355000FFE79DF84000C00758B1FFE79DF83D0028
:10356000C00730B1FFE71199486C40F00100486492
:10357000FFE79DF84000400700280BD5FFE79DF8C6
:103580003800C00730B1FFE71199486C40F00200E5
:103590004864FFE79DF84000800700280BD5FFE74F
:1035A0009DF83800C00730B1FFE71199486C40F032
:1035B00004004864FFE79DF840000007002811D58B
:1035C000FFE79DF83C008006002805D4FFE79DF842
:1035D0003800C00730B1FFE71199486C40F008008F
:1035E0004864FFE71198406C002866D0FFE79DF81B
:1035F0004000800600280AD5FFE79DF83C008006C1
:10360000002804D5FFE7119801F048F9FFE7119869
:1036100000684069C0F380100C901198406C00075E
:10362000002804D4FFE70C9800283ED0FFE711984B
:1036300001F0D6F8119800684069400600282FD59F
:10364000FFE7FFE7FFE71198006850E8050F20F05B
:1036500040000B90FFE70B991198026842E80510B3
:103660000028F0D1FFE7FFE71198C06B98B1FFE7A2
:103670001198C16B44F2C570C0F60000086511983E
:10368000C06BFDF7A7FF28B1FFE71198C06B016D74
:103690008847FFE703E01198FFF71CFFFFE703E00F
:1036A0001198FFF717FFFFE706E01198FFF712FFE9
:1036B000119900204864FFE7FFE73BE11198006B98
:1036C000012840F01781FFE79DF84000C006002860
:1036D00040F11081FFE79DF83C00C006002840F152
:1036E0000981FFE7FFE700200A9011980068006851
:1036F0000A901198006840680A900A98FFE71198AC
:10370000006840694006002840F19A80FFE7119860
:10371000C06B00684068ADF82600BDF826000028A0
:1037200075D0FFE7BDF826001199898D88426EDAC1
:10373000FFE7BDF826001199C8851198C06BC069D4
:10374000B0F5807F58D0FFE7FFE7FFE711980068EA
:1037500050E8030F20F480700890FFE70899119853
:10376000026842E803100028F0D1FFE7FFE7FFE717
:10377000FFE71198006850E8050F20F0010007905E
:10378000FFE707991198026842E805100028F0D178
:10379000FFE7FFE7FFE7FFE71198006850E8050F34
:1037A00020F040000690FFE706991198026842E871
:1037B00005100028F0D1FFE7FFE71199202081F8DC
:1037C0004200119900200863FFE7FFE711980068A5
:1037D00050E8030F20F010000590FFE705991198BD
:1037E000026842E803100028F0D1FFE7FFE71198D4
:1037F000C06BFDF779FEFFE711990220486311982D
:10380000818DC28D891A89B2FFF75EFE17E0BDF87F
:1038100026001199898D884210D1FFE71198C06B5D
:10382000C069B0F5807F08D1FFE711990220486395
:103830001198818DFFF748FEFFE7FFE7FFE779E08A
:103840001199888DC98D401AADF812001198C08D5C
:1038500000284ED0FFE7BDF81200002849D0FFE74E
:10386000FFE7FFE71198006850E8030F20F490701D
:103870000390FFE703991198026842E803100028BB
:10388000F0D1FFE7FFE7FFE7FFE71198006850E896
:10389000050F20F001000290FFE7029911980268DD
:1038A00042E805100028F0D1FFE7FFE7119920203A
:1038B00081F84200119900200863FFE7FFE71198A3
:1038C000006850E8030F20F010000190FFE7019915
:1038D0001198026842E803100028F0D1FFE7FFE7E3
:1038E0001199022048631198BDF81210FFF7ECFD02
:1038F000FFE71FE09DF84000000600280AD5FFE71B
:103900009DF83C000006002804D5FFE7119801F05F
:1039100017F90FE09DF84000400600280AD5FFE7A0
:103920009DF83C004006002804D5FFE7119800F000
:10393000A1FFFFE712B080BD80B582B00090009873
:1039400020B9FFE701208DF8070040E0009880696A
:1039500008B1FFE700E0FFE7009890F8410040B9A8
:10396000FFE70099002081F84000009800F034F84B
:10397000FFE70099242081F8410000980168C86899
:1039800020F40050C860009801F03CF800980168ED
:10399000086920F49040086100980168486920F0A7
:1039A0002A00486100980168C86840F40050C86067
:1039B000009900204864009A202182F84110009A62
:1039C00082F84210009948638DF80700FFE79DF8E0
:1039D000070002B080BD000080B592B011900020B9
:1039E00010900F900E900D900C901198006841F27D
:1039F0000001C4F20101884240F0AC80FFE7FFE71C
:103A000000200B9043F64400C4F20200016841F02C
:103A100010010160006800F010000B900B98FFE7A8
:103A2000FFE700200A9043F63000C4F2020001686C
:103A300041F001010160006800F001000A900A985D
:103A4000FFE74FF400700C90022002900D900020D0
:103A500008900E90032003900F9007200490109080
:103A60000020C4F2020005900CA90691FEF73EF872
:103A7000DDF808C0039B049A059806994FF4806E00
:103A8000CDF81CE0CDF830E0CDF834C04FF0010C9B
:103A9000CDF838C00F931092FEF728F8079A0899CE
:103AA00040F22030C2F20000099046F24043C4F2D6
:103AB000020303604FF0006343608160C1600261F4
:103AC00041618161C16101624162FDF735FF18B159
:103AD000FFE7FCF751FEFFE7FFE7119840F22031C6
:103AE000C2F20001C16311988863FFE740F28030A1
:103AF000C2F20000019046F2B841C4F20201016036
:103B00004FF000614160402181600021C1604FF4AD
:103B10008062026141618161C16101624162FDF7C0
:103B20000BFF18B1FFE7FCF727FEFFE7FFE711984F
:103B300040F28031C2F20001816311988863FFE78F
:103B40002520009005210022FEF798FA0098FEF744
:103B50008BFAFFE712B080BD81B0009001B07047D2
:103B600081B0009001B07047FFE7FEE780B58EB0EE
:103B700040F2F820C2F20000029046F20041C4F286
:103B80000001016003214160002103918160C16057
:103B90004FF4002202614FF44012426101764176F7
:103BA0008176C17601774177FDF798FA18B1FFE782
:103BB000FCF7E2FDFFE701200C900E200D900020A5
:103BC000019009900B900A9008900490069005903F
:103BD000079040F2F820C2F2000004A9FCF7A6FE0C
:103BE00018B1FFE7FCF7C8FDFFE740F2F820C2F28A
:103BF0000000FDF717FC18B1FFE7FCF7BDFDFFE77C
:103C000040F2F820C2F200000221FCF7B9FD18B121
:103C1000FFE7FCF7B1FDFFE70EB080BD80B586B0D1
:103C2000FFE70020059043F63000C4F2020001686F
:103C300041F480010160006800F48000059005985F
:103C4000FFE73A2001900521029100220392FEF73E
:103C500015FA0198FEF708FA0299039A4620049093
:103C6000FEF70CFA0498FEF7FFF906B080BD0000DD
:103C700080B582B043F6C570C0F6000048F2F86225
:103C8000C0F600020021019101F06CFD019940F2A3
:103C90007402C2F20002106044F2A970C0F6000083
:103CA00048F24C72C0F6000201F05CFD40F628318B
:103CB000C2F20001086002B080BD000080B58EB085
:103CC00000200D900C900B900A900990FFE70020C7
:103CD000089043F63000C4F20200016841F0800110
:103CE0000160006800F0800008900898FFE7FFE797
:103CF0000020079043F63000C4F20200016841F052
:103D000001010160006800F0010007900798FFE7DB
:103D1000FFE70020069043F63000C4F2020001687D
:103D200041F004010160006800F00400069006986C
:103D3000FFE70020C4F2020001904FF49871009157
:103D400000220492FEF7AEF8009A019804990992B5
:103D500001220A92022202920B920C9109A903916C
:103D6000FDF7C4FE029803994FF4006209924FF4E4
:103D700088120A920B9040F60000C4F20200FDF790
:103D8000B5FE049A282005900521FEF777F90598DD
:103D9000FEF76AF90EB080BD80B58EB000210091AB
:103DA0000D910C910B910A9109910891079106913F
:103DB0000591049103910291019140F22840C2F2D1
:103DC000000040F20042C4F200020260532242604E
:103DD000816040F2E732C26001618161FEF764FFF9
:103DE00018B1FFE7FCF7C8FCFFE74FF480500A90DA
:103DF00040F22840C2F200000AA9FFF749F818B1C2
:103E0000FFE7FCF7B9FCFFE740F22840C2F20000F0
:103E1000FFF7ECFA18B1FFE7FCF7AEFCFFE7002074
:103E20000890099040F22840C2F2000008A9FEF76D
:103E3000A9FE18B1FFE7FCF79FFCFFE760200190A7
:103E4000002202920392059240F22840C2F2000042
:103E500001A9FFF729FA18B1FFE7FCF78DFCFFE78E
:103E600040F22840C2F2000001A90422FFF71CFA28
:103E700018B1FFE7FCF780FCFFE740F22840C2F2F0
:103E80000000FFF7D9F90EB080BD000080B582B008
:103E900040F27040C2F20000019041F20001C4F211
:103EA000010101604FF4E131416000218160C16096
:103EB00001610C2242618161C161FFF73DFD18B1D2
:103EC000FFE7FCF759FCFFE702B080BDFFE7FEE724
:103ED00081B08DED000A9DED000A9FED031A20EEE2
:103EE000010A01B0704700BF0000B443FFE7FEE7DE
:103EF00088B0079006910592079800F0070004909B
:103F00000498C0F10700052803D3FFE704200190BF
:103F100004E00498C0F107000190FFE701980390C6
:103F200004980430062803D8FFE70020009003E03F
:103F3000049803380090FFE70098029006980399D0
:103F4000012202FA01F101390840029B98400599CB
:103F50009A40013A1140084308B070470000000041
:103F6000EFF30980BFF36F8F154B1A681EF0100F27
:103F700008BF20ED108A20E9F04F10602DE90900FC
:103F80004FF0500080F31188BFF34F8FBFF36F8F56
:103F900003F0BEF84FF0000080F31188BDE809007F
:103FA00019680868B0E8F04F1EF0100F08BFB0ECB9
:103FB000108A80F30988BFF36F8F704700BF00BF7E
:103FC000AC05002080B584B0039003F099FE029008
:103FD00006200190FFE700F029FE02A8062102F06A
:103FE0002FFFF8E781B000900099002081F80001D0
:103FF000009981F80101009981F8020101B0704730
:10400000074B19680868B0E8F04F80F30988BFF3E0
:104010006F8F4FF0000080F31188704700BF00BF22
:10402000AC05002080B56FF00400002101F082FA99
:1040300080BD000080B54EF21000CEF20000006896
:1040400003F042FE012803D0FFE703F071F9FFE718
:1040500080BD000080B594B008A83021FCF7C9F9F4
:10406000002007900690059004900390FFE7002041
:10407000029043F64000C4F20200016841F0805112
:104080000160006800F0805002900298FFE7FFE7AF
:104090000020019047F20000C4F20000016841F4E2
:1040A00080410160006800F4804001900198FFE7C2
:1040B000012008904FF48030099002200E904FF4B8
:1040C00080010F91192110914FF4A8711191129054
:1040D0000420139008A8FEF7EDF918B1FFE7FCF7EC
:1040E0004BFBFFE70F200390022004900020059077
:1040F0004FF4A05006904FF48050079003A805217C
:10410000FDF7DEFF18B1FFE7FCF736FBFFE714B061
:1041100080BD00004EF68851CEF20001086840F4E0
:10412000700008607047000080B540F2E030C2F2D5
:104130000000FEF773FF80BD80B540F22840C2F258
:104140000000FEF76BFF80BD83B0029001910298E2
:104150000068009002980021C4F20101884225D035
:10416000FFE70298B0F1804F20D0FFE7029840F2BD
:104170000041C4F20001884218D0FFE7029840F6DF
:104180000001C4F20001884210D0FFE7029840F617
:104190000041C4F20001884208D0FFE7029840F2D3
:1041A0000041C4F2010188420AD1FFE7009820F0E3
:1041B0007000009001984168009808430090FFE764
:1041C00002980021C4F20101884255D0FFE702980D
:1041D000B0F1804F50D0FFE7029840F20041C4F2A6
:1041E0000001884248D0FFE7029840F60001C4F27F
:1041F0000001884240D0FFE7029840F60041C4F237
:104200000001884238D0FFE7029840F20041C4F232
:104210000101884230D0FFE7029844F20001C4F265
:104220000101884228D0FFE7029844F20041C4F21D
:104230000101884220D0FFE7029844F60001C4F251
:104240000101884218D0FFE7029841F60001C4F24C
:104250000001884210D0FFE7029841F60041C4F205
:104260000001884208D0FFE7029842F20001C4F240
:10427000000188420AD1FFE7009820F440700090C6
:104280000198C168009808430090FFE7009820F06B
:10429000800001994969084300900198806802995B
:1042A000C862019800680299886202980021C4F2ED
:1042B0000101884208D0FFE7029840F20041C4F2B1
:1042C0000101884205D1FFE701980069029908635E
:1042D000FFE70299086840F0040008600299012095
:1042E000486100980299086003B0704785B0049057
:1042F000039102920193049880680090009820F442
:104300007F40009003980299019A41EA02210143FB
:1043100000980843009000980499886005B07047A1
:1043200083B002900191029880680090009820F07C
:104330007000009001980099084340F00700009039
:1043400000980299886003B07047000085B004901F
:1043500003910498006A01900499086A20F0010012
:10436000086204984068009004988069029002985E
:1043700020F070000290029820F003000290039851
:104380000168029808430290019820F00200019011
:104390000398816801980843019004980021C4F2B1
:1043A0000101884208D0FFE7049840F20041C4F2BE
:1043B000010188420ED1FFE7019820F0080001902A
:1043C0000398C168019808430190019820F0040007
:1043D0000190FFE704980021C4F20101884208D04F
:1043E000FFE7049840F20041C4F20101884213D172
:1043F000FFE7009820F480700090009820F400708F
:1044000000900398416900980843009003988169DF
:10441000009808430090FFE70098049948600298CC
:104420000499886103984068049948630198049945
:10443000086205B07047000085B0049003910498AD
:10444000006A01900499086A20F01000086204983C
:1044500040680090049880690290029820F4E0403F
:104460000290029820F4407002900398016802982C
:1044700040EA01200290019820F02000019003986A
:104480008168019840EA0110019004980021C4F26B
:104490000101884208D0FFE7049840F20041C4F2CD
:1044A000010188420FD1FFE7019820F080000190C0
:1044B0000398C168019840EA01100190019820F02A
:1044C00040000190FFE704980021C4F201018842F6
:1044D00008D0FFE7049840F20041C4F2010188428D
:1044E00015D1FFE7009820F480600090009820F438
:1044F0000060009003984169009840EA81000090B4
:1045000003988169009840EA81000090FFE70098D5
:104510000499486002980499886103984068049956
:10452000886301980499086205B0704785B00490CB
:1045300003910498006A01900499086A20F480703D
:1045400008620498406800900498C069029002983C
:1045500020F070000290029820F00300029003986F
:104560000168029808430290019820F400700190BD
:1045700003988168019840EA012001900498002185
:10458000C4F20101884208D0FFE7049840F20041DC
:10459000C4F2010188420FD1FFE7019820F40060C6
:1045A00001900398C168019840EA012001900198A8
:1045B00020F480600190FFE704980021C4F201011B
:1045C000884208D0FFE7049840F20041C4F201019C
:1045D000884215D1FFE7009820F4805000900098A1
:1045E00020F40050009003984169009840EA0110BF
:1045F000009003988169009840EA01100090FFE75D
:1046000000980499486002980499C861039840682A
:104610000499C86301980499086205B070470000C6
:1046200085B0049003910498006A01900499086A87
:1046300020F4805008620498406800900498C06993
:104640000290029820F4E0400290029820F440701A
:10465000029003980168029840EA012002900198B4
:1046600020F40050019003988168019840EA0130DD
:10467000019004980021C4F20101884208D0FFE7AC
:10468000049840F20041C4F2010188420BD1FFE7D7
:10469000009820F48040009003984169009840EA17
:1046A00081100090FFE700980499486002980499EF
:1046B000C8610398406804990864019804990862E5
:1046C00005B0704781B000900098006840F200414A
:1046D000C4F20001884213D1FFE740F29C00C2F20D
:1046E00000000168013101600068022807D3FFE77C
:1046F00040F29C01C2F2000100200860FFE7FFE7E2
:1047000001B0704785B00490039102920498006A4A
:1047100000900499086A20F00100086204988069FA
:104720000190019820F0F00001900299019840EA70
:1047300001100190009820F00A0000900399009861
:1047400008430090019804998861009804990862D0
:1047500005B0704785B00490039102920498006AF6
:1047600000900499086A20F010000862049880699B
:104770000190019820F4704001900299019840EA5C
:1047800001300190009820F0A0000090039900985B
:1047900040EA0110009001980499886100980499FA
:1047A000086205B07047000080B584B0039003F044
:1047B000A7FA029002200190FFE700F0FBFE00F054
:1047C000F9FEFAE780B582B001900198806B009005
:1047D00000990020C8850098FEF77CFE02B080BDDD
:1047E00084B00390FFE7FFE70398006850E8030FE9
:1047F00020F490700290FFE702990398026842E863
:1048000003100028F0D1FFE7FFE7FFE7FFE7039879
:10481000006850E8050F20F001000190FFE70199C2
:104820000398026842E805100028F0D1FFE7FFE78F
:104830000398006B012814D1FFE7FFE7FFE7039817
:10484000006850E8030F20F010000090FFE7009987
:104850000398026842E803100028F0D1FFE7FFE761
:10486000FFE70399202081F84200039900200863A4
:1048700004B0704780B582B0019001980168C868A3
:1048800020F04000C8600199202081F84100019883
:10489000FFF766F9002002B080BD000080B586B049
:1048A0000490002003900290049890F8420022287F
:1048B00040F0A080FFE704988068B0F5805F13D1D6
:1048C000FFE70498006978B9FFE70498806A0290CE
:1048D0000498006840686FF35F200299088004998B
:1048E000886A0230886223E00498806A0390049802
:1048F0008068B0F5805F08D0FFE70498806850B901
:10490000FFE70498006930B9FFE704980068406841
:104910000399087007E004980068406800F07F0081
:1049200003990870FFE70499886A01308862FFE7FD
:104930000499C88D0138C8850004002856D1FFE7C6
:1049400004980168C86820F02000C86004980168D5
:10495000C86820F48070C86004980168486920F035
:10496000010048610499202081F842000499002048
:1049700048630498006B012830D1FFE704990020B8
:104980000863FFE7FFE70498006850E8030F20F092
:1049900010000190FFE701990498026842E80310B3
:1049A0000028F0D1FFE7FFE7049800680068C00620
:1049B00000280ED5FFE7FFE700200090049800686C
:1049C0000068009004980068406800900098FFE735
:1049D000FFE70498818DFEF777FD03E00498FFF769
:1049E000BBF8FFE700208DF8170007E000208DF8E6
:1049F000170003E002208DF81700FFE79DF817006D
:104A000006B080BD80B586B0059005980068006945
:104A100020F44050059A1168D26810430861059946
:104A200088680B694A69C9691843104308430490B0
:104A300005980068C06849F20C61884304990843EE
:104A400005990968C86005980068406920F44070BD
:104A5000059A11689269104348610598006841F20F
:104A60000001C4F20101884209D0FFE705980068FF
:104A700041F20041C4F20101884204D1FFE7FDF791
:104A800093FC039003E0FDF77DFC0390FFE705989E
:104A9000C069B0F5004F29D1FFE703981921A0FBA9
:104AA0000101059A1368029353685A00DB0FFBF764
:104AB000DBFB0299864648F21F53C5F2EB13AEFBAF
:104AC0000320420910014FF0640C02FB1CEC32225F
:104AD00002EBCC02A2FB0332F82303EA521300EBF1
:104AE0004300C2F342121044886026E00398192163
:104AF000A0FB0101059A1368019353689A009B0F6C
:104B0000FBF7B2FB0199844648F21F52C5F2EB1243
:104B1000ACFB02304309642003FB10CC322000EBD5
:104B20000C10A0FB0202F02000EA521000EB031070
:104B3000C2F3431210448860FFE706B080BD000056
:104B400083B00190019890F8410021283AD1FFE705
:104B500001988068B0F5805F13D1FFE70198006984
:104B600078B9FFE70198006A0090009800886FF319
:104B70005F200199096848600199086A023008625B
:104B800008E0019A106A411C1162007801990968D5
:104B90004860FFE70199C88C0138C884000468B9EF
:104BA000FFE701980168C86820F08000C86001989C
:104BB0000168C86840F04000C860FFE700208DF839
:104BC0000B0003E002208DF80B00FFE79DF80B00BF
:104BD00003B0704780B540F27040C2F20000FEF7AB
:104BE0007DFC80BDFFE7FEE780B582B08DF8070051
:104BF0008DF806109DF8070020B9FFE70F208DF80B
:104C00000700FFE79DF807009DF8061040EA011134
:104C100040F62420C2F2000048F21C73C0F60003E4
:104C20000022FBF773FD02B080BD000080B584B0A8
:104C300000200390FFE70398022843D8FFE703987A
:104C400040F2A002C2F20002C82100FB012090F84D
:104C5000C400C00708B9FFE730E0039840F2A002A3
:104C6000C2F200020292C821019100FB012000F073
:104C70000FFB019B0299039A02FB03105A434078F1
:104C8000895C88420DD0FFE7039940F2A002C2F28E
:104C90000002C82001FB00200131C9B200F0D0FBA6
:104CA0000CE0039940F2A002C2F20002C82001FB0E
:104CB00000200131C9B200F0F7FAFFE70398013094
:104CC0000390B8E7002000902E21FFF78DFF009899
:104CD0002D21FFF789FF04B080BD000084B00020C3
:104CE0000390FFE7039802286ED8FFE7039840F28D
:104CF000A003C2F200030093C822019200FB02311C
:104D00004FF07E504860039901FB023188600398A0
:104D100000FB023145F20000C4F2C370C1F89400F8
:104D2000039800FB0231002002900867039901FB01
:104D300002314867039901FB0231C867039901FBFF
:104D4000023181F8B200039901FB02318883039993
:104D500001FB02314863039901FB023C43F233310A
:104D6000C4F21301CCF80C10039901FB0231086165
:104D7000039901FB023C0021C4F22011CCF814106D
:104D8000039901FB023188610399514358540399F7
:104D900001FB02314870039901FB023181F8B80030
:104DA000039901FB023181F8C400039901FB023130
:104DB000C1F8B400039901FB023181F8B300FFE7A9
:104DC0000398013003908DE704B07047B0B592B0FE
:104DD000189CDDF85CE0DDF858C0199D1194CDF801
:104DE00040E0CDF83CC00E930D920C910B900B98C7
:104DF00000F00F000A900B9800090990002008901D
:104E0000ADF81E00ADF81C000D9808B1FFE75CE19D
:104E10000B98000A092801D3FFE756E10A9820B150
:104E2000FFE70A98042801D3FFE74EE10A9801380A
:104E300006900F98042840F0EA80FFE709980A38A6
:104E400001460291242800F2E0800299DFE811F087
:104E5000B900DD00DD00DD00DD00DD00DD00DD008E
:104E6000DD00DD00DD00DD00C500D100DD00DD007E
:104E7000DD00DD00DD00DD00DD007600DD008B0003
:104E8000DD00DD00A100DD00DD00DD00DD00DD0076
:104E9000DD004A00DD005B002500069840F2A0021C
:104EA000C2F200020092C821019100FB0123586B5D
:104EB0005865069800FB0123199800685863069806
:104EC00000FB012090ED0D0AFFF702F8009A01990E
:104ED000069800FB012090ED021A80EE010A80ED99
:104EE0000D0A93E0069840F2A002C2F20002C82127
:104EF00000FB012319980068D863069800FB012184
:104F0000C86B086482E0069840F2A002C2F2000278
:104F1000C82100FB0123199800681863069800FB5C
:104F2000012090ED022A90ED0C0A9FED711A81EE9E
:104F3000021A20EE010A80ED0C0A67E000200590BD
:104F40001998006805909DED050ABDEEC00A10EEA7
:104F5000100A069940F2A003C2F20003C82201FB26
:104F60000231487052E000200490199800680490C3
:104F70009DED040ABDEEC00A10EE100A069940F23B
:104F8000A003C2F20003C82201FB023181F8B8007D
:104F90003CE0002003901998006803909DED030AFF
:104FA000FEF796FF069840F2A002C2F20002C82166
:104FB00000FB012090ED021A80EE010A80ED0E0A3E
:104FC00024E0069840F2A002C2F20002C82100FBD1
:104FD000012119980068486418E0069840F2A00280
:104FE000C2F20002C82100FB012119980068886400
:104FF0000CE0069840F2A002C2F20002C82100FBB9
:10500000012119980068C86400E0FFE75DE00F988F
:10501000082859D1FFE7199800680890069840F2CF
:10502000A002C2F20002C82100FB0123586B5865A0
:105030009DED080A9FED261A80EE010A9FED251AC4
:1050400020EE010A9FED241A30EE010A069800FBBB
:10505000012090ED021A80EE010A80ED0D0A1998E8
:105060008088ADF81E00BDF91E0000EE100AB8EEF3
:10507000C00A9FED1A1A80EE010A9FED192A20EE50
:10508000020A9FED182A30EE020A069800FB012062
:1050900080ED0C0A1998C088ADF81C00BDF91C0001
:1050A00000EE100AB8EEC00A80EE010A9FED0E1A5B
:1050B00020EE010A9FED0D1A30EE010A069800FB62
:1050C000012080ED0F0AFFE7FFE712B0B0BD00BF7F
:1050D0000000804F00409C4600401CC600FF7F47F8
:1050E00000009643000016C30000A042000020C24A
:1050F0000000704280B584B003AA019282ED000ADC
:105100008DF80B008DF80A109DF80B00A8B9FFE789
:105110000F208DF80B009DF80B009DF80A1040EA57
:10512000011140F62420C2F2000048F21C73C0F6C0
:1051300000030022FBF7EAFA51E09DF80B00042877
:1051400001DBFFE74BE09DF80A00242805D0FFE7CC
:105150009DF80A002E2816D1FFE7019890ED000A6D
:10516000FBF7F0F901989DF80B1040F2A003C2F292
:105170000003C82211FB023111ED301A20EE010AA2
:1051800080ED000A1CE09DF80A00232817D1FFE7F4
:1051900001989DF80B1040F2A003C2F20003C82250
:1051A00011FB023111ED301A9FED0E0A80EE011A4B
:1051B00090ED000A80EE010A80ED000AFFE7FFE7AC
:1051C0009DF80B009DF80A1040EA011140F62420DA
:1051D000C2F20000042203ABFBF798FAFFE704B029
:1051E00080BD00BF0000704280B588B08DED070A19
:1051F000CDED060A8DF817000020049003909DF86D
:10520000170028B1FFE79DF81700042801DBFFE72E
:1052100032E09DED070A9FED191A30EE010A9FED6D
:10522000181A80EE010A9FED171A20EE010ABCEE53
:10523000C00A8DED020A9DED060A9FED132A30EE9D
:10524000020A9FED122A80EE020A20EE010ABCEE4D
:10525000C00A8DED010A02980390019804909DF810
:10526000170040F4647140F62420C2F200000822C6
:1052700003ABFBF74BFAFFE708B080BD0000164315
:10528000000096430000804F00401C4600409C46B2
:1052900081B00090009890F8B80008B9FFE7FFE7E8
:1052A00001B070470000000080B584B003908DF815
:1052B0000B100398007801460191032800F2AF809B
:1052C0000199DFE801F0AB32023B039890ED1C0A34
:1052D00090ED241A30EE410A10EE100A03F054F952
:1052E00041EC100B9FED501B50EC111BC20F51EC09
:1052F000100B62F3DF7141EC100B51EC100B9FEDC2
:105300004E0B53EC102B03F086F968B9FFE70398B6
:1053100090ED1C0A9DF80B002321FFF7EBFE03998B
:10532000086FC1F89000FFE77AE0039890ED1F0A3C
:105330009DF80B002221FFF7DDFE71E0039890F845
:10534000BC00C00700285ED1FFE7039890ED1D0A5E
:1053500090ED251A30EE410A10EE100A03F014F910
:1053600041EC100B9FED301B50EC111BC20F51ECA8
:10537000100B62F3DF7141EC100B51EC100B9FED41
:105380002C0B53EC102B03F04DF968B9FFE7039990
:10539000486FC1F89400039890ED1D0A9DF80B002A
:1053A0002421FFF7A7FE2DE0039890ED1D0AB5EE2E
:1053B000400AF1EE10FA24D1FFE70398806B03F066
:1053C000E3F841EC100B9FED181B50EC111BC20FC2
:1053D00051EC100B62F3DF7141EC100B51EC100B30
:1053E0009FED130B53EC102B03F01CF948B9FFE7AA
:1053F000039890ED1D0A9DF80B002421FFF77AFE1B
:10540000FFE7FFE709E0039890ED1C0AD0ED1D0AC5
:105410009DF80B00FFF7E8FEFFE701E0FFE7FFE77D
:1054200004B080BD00BF00BF00000000000000000D
:105430009A9999999999B93F000000A09999B93F13
:1054400080B584B003908DF80B1003980078014666
:105450000191022817D3FFE70198022804D0FFE743
:105460000198032807D00FE00399002008670399EB
:10547000C1F8900009E00399486B48670399486BAD
:10548000C1F8940001E0FFE7FFE70398007800EE21
:10549000100AB8EE400A9DF80B001F210091FFF79B
:1054A00029FE00999DF80B00FFF79EFB04B080BD1C
:1054B00081B08DF803009DF9030000280ED4FFE7AA
:1054C0009DF9031001F01F02012090404A094EF29D
:1054D0000011CEF2000141F82200FFE701B0704751
:1054E0004EF60C50CEF200000068C0F30220704768
:1054F00082B08DF8070000919DF9070000280AD4BA
:10550000FFE7009800019DF907104EF20042CEF22D
:10551000000288540BE0009800019DF8071001F08C
:105520000F014EF61452CEF200028854FFE702B08B
:105530007047000082B08DF8070000919DF90700C8
:1055400000280AD4FFE7009800019DF907104EF2E9
:105550000042CEF2000288540BE0009800019DF852
:10556000071001F00F014EF61452CEF200028854DB
:10557000FFE702B07047000083B00290029800F08D
:10558000070000904EF60C51CEF200010868019021
:1055900001984FF6FF02104001900198009A40EAEE
:1055A00002200022C0F2FA521043019001980860D4
:1055B00003B0704780B58AB040F62420C2F20000E4
:1055C00000F030F860BBFFE700210291019140F646
:1055D0002420C2F20000009090F80021520182586D
:1055E00004920691079190F8002100EB4212126993
:1055F00008928DF8241090F8001100EB4111886991
:10560000C9690291019040F2F820C2F2000004A999
:1056100001AA03ABFBF7DEF80098FBF755F8FFE7AC
:105620000AB080BD82B00090009890F8020120B9C5
:10563000FFE701208DF8070003E000208DF8070048
:10564000FFE79DF8070002B07047000082B00090AD
:10565000009890F80201082804D1FFE701208DF896
:10566000070003E000208DF80700FFE79DF8070022
:1056700002B0704780B582B000200190FCF73EFC7C
:10568000FEF7E8FCFEF71AFBFEF7C8FAFEF76EFA23
:10569000FEF7FCFBFEF780FB40F62420C2F2000080
:1056A000FEF7A0FCFFF71AFB40F2A001C2F20001D6
:1056B000012081F8C40000F007F8FEF7D9FA00F0E5
:1056C00027F8FFE7FEE7000082B0EFF305800190C6
:1056D000019820B1FFE76FF00500009014E040F260
:1056E0007000C2F20000006848B9FFE740F27001A4
:1056F000C2F20001012008600020009003E04FF09A
:10570000FF300090FFE7FFE7009802B0704700000D
:1057100080B582B0EFF305800190019820B1FFE7DA
:105720006FF00500009019E040F27000C2F2000036
:10573000006801280DD1FFE7FEF774FC40F270010C
:10574000C2F200010220086001F06AFC0020009013
:1057500003E04FF0FF300090FFE7FFE7009802B052
:1057600080BD0000B0B58EB00B900A910992002068
:105770000690EFF305800D900D98002840F0998079
:10578000FFE70B98002800F09480FFE78020079047
:1057900018200590002008904FF0FF3004900998E1
:1057A00000284DD0FFE70998006820B1FFE709986D
:1057B00000680890FFE70998806920B1FFE7099821
:1057C00080690590FFE7059848B1FFE705983828FC
:1057D00005D8FFE709980079C00718B1FFE7002056
:1057E0000C9069E00998406928B1FFE70998406981
:1057F00080080790FFE70998806880B1FFE7099863
:10580000C0685C280BD3FFE70998006938B1FFE74F
:105810000998406918B1FFE7012004900FE009984A
:10582000806858B9FFE70998C06838B9FFE7099858
:10583000006918B9FFE700200490FFE7FFE702E0E6
:1058400000200490FFE70498012817D1FFE70B9888
:105850000899079A0A9BDDF814C0DDF824E0DEF809
:105860000850DEF81040EE46CEF80850CEF804405E
:10587000CEF800C002F0C0F9069019E00498B0B963
:10588000FFE70B980899BDF81C200A9BDDF814C0AF
:10589000EE4606ACCEF80440CEF800C002F05CF94B
:1058A000012803D0FFE700200690FFE7FFE7FFE7AE
:1058B000FFE706980C90FFE70C980EB0B0BD000013
:1058C00080B584B00390029144F60070C2F20000EB
:1058D0000068009040F2AC50C2F200000068043052
:1058E00001F066F808B9FFE700E0FFE70398013030
:1058F00080B9FFE7029868B1FFE740F2AC50C2F20E
:1059000000000068011D44F6D860C2F2000001F0FA
:10591000F5F83DE00098039908440190019840F2A1
:10592000AC51C2F2000109684860019800998842B0
:105930000ED2FFE740F2BC50C2F20000006840F215
:10594000AC51C2F200010968043101F0A1F81EE077
:1059500040F2B450C2F20000006840F2AC51C2F212
:1059600000010968043101F093F8019844F664617C
:10597000C2F200010968884207D2FFE7019844F6A5
:105980006461C2F20001086000E0FFE7FFE7FFE7A3
:1059900004B080BD80B582B0019001F0D7F844F228
:1059A0003871C2F2000108680130086040F2AC5062
:1059B000C2F20000006898B9FFE7019840F2AC51CC
:1059C000C2F20001086044F23870C2F200000068C0
:1059D000012803D1FFE700F0F7FA00E0FFE71CE041
:1059E00044F6CC60C2F200000068A0B9FFE740F2C4
:1059F000AC50C2F200000068C06A0199C96A8842CE
:105A000007D8FFE7019840F2AC51C2F200010860EC
:105A100000E0FFE700E0FFE7FFE744F24470C2F276
:105A20000000016801310160006801994864019833
:105A3000C06A44F24871C2F200010968884208D97C
:105A4000FFE70198C06A44F24871C2F200010860A1
:105A5000FFE70199C86A00EB800240F2C450C2F22D
:105A6000000000EB8200043101F048F801F09AF8E0
:105A700044F6CC60C2F200000068C8B1FFE740F213
:105A8000AC50C2F200000068C06A0199C96A88423D
:105A90000CD2FFE74EF60451CEF200014FF08050D9
:105AA0000860BFF34F8FBFF36F8F00E0FFE700E0A8
:105AB000FFE702B080BD000080B584B001F046F879
:105AC00044F60470C2F200000068002840D1FFE7ED
:105AD00044F60460C2F20000029000F0B9FF44F600
